{
  "contractName": "MetaCoin",
  "abi": [
    {
      "constant": false,
      "inputs": [
        {
          "name": "token",
          "type": "string"
        }
      ],
      "name": "addToken",
      "outputs": [
        {
          "name": "sufficient",
          "type": "bool"
        }
      ],
      "payable": false,
      "stateMutability": "nonpayable",
      "type": "function"
    },
    {
      "constant": true,
      "inputs": [
        {
          "name": "addr",
          "type": "address"
        }
      ],
      "name": "getBalance",
      "outputs": [
        {
          "name": "",
          "type": "uint256"
        }
      ],
      "payable": false,
      "stateMutability": "view",
      "type": "function"
    },
    {
      "constant": false,
      "inputs": [
        {
          "name": "addr",
          "type": "address"
        },
        {
          "name": "token",
          "type": "string"
        }
      ],
      "name": "applyToken",
      "outputs": [
        {
          "name": "sufficient",
          "type": "bool"
        }
      ],
      "payable": false,
      "stateMutability": "nonpayable",
      "type": "function"
    }
  ],
  "bytecode": "0x608060405234801561001057600080fd5b506106de806100206000396000f300608060405260043610610057576000357c0100000000000000000000000000000000000000000000000000000000900463ffffffff16806347a5c4231461005c5780638ce26108146100fd578063f8b2cb4f1461017e575b600080fd5b34801561006857600080fd5b506100e3600480360381019080803573ffffffffffffffffffffffffffffffffffffffff169060200190929190803590602001908201803590602001908080601f01602080910402602001604051908101604052809392919081815260200183838082843782019150505050505091929192905050506101d5565b604051808215151515815260200191505060405180910390f35b34801561010957600080fd5b50610164600480360381019080803590602001908201803590602001908080601f01602080910402602001604051908101604052809392919081815260200183838082843782019150505050505091929192905050506103dd565b604051808215151515815260200191505060405180910390f35b34801561018a57600080fd5b506101bf600480360381019080803573ffffffffffffffffffffffffffffffffffffffff1690602001909291905050506105c4565b6040518082815260200191505060405180910390f35b6000806000836040518082805190602001908083835b60208310151561021057805182526020820191506020810190506020830392506101eb565b6001836020036101000a03801982511681845116808217855250505050505090500191505060405180910390206001900491506000151560008084815260200190815260200160002060010160009054906101000a900460ff16151514156103d0576001600083815260200190815260200160002060009054906101000a900473ffffffffffffffffffffffffffffffffffffffff169050846001600084815260200190815260200160002060006101000a81548173ffffffffffffffffffffffffffffffffffffffff021916908373ffffffffffffffffffffffffffffffffffffffff160217905550600260008273ffffffffffffffffffffffffffffffffffffffff1673ffffffffffffffffffffffffffffffffffffffff1681526020019081526020016000206000815480929190600190039190505550600260008673ffffffffffffffffffffffffffffffffffffffff1673ffffffffffffffffffffffffffffffffffffffff16815260200190815260200160002060008154809291906001019190505550600160008084815260200190815260200160002060010160006101000a81548160ff021916908315150217905550600192506103d5565b600092505b505092915050565b600080826040518082805190602001908083835b60208310151561041657805182526020820191506020810190506020830392506103f1565b6001836020036101000a0380198251168184511680821785525050505050509050019150506040518091039020600190049050604080519081016040528084815260200160001515815250600080838152602001908152602001600020600082015181600001908051906020019061048f92919061060d565b5060208201518160010160006101000a81548160ff0219169083151502179055509050503360016000856040518082805190602001908083835b6020831015156104ee57805182526020820191506020810190506020830392506104c9565b6001836020036101000a038019825116818451168082178552505050505050905001915050604051809103902060019004815260200190815260200160002060006101000a81548173ffffffffffffffffffffffffffffffffffffffff021916908373ffffffffffffffffffffffffffffffffffffffff160217905550600260003373ffffffffffffffffffffffffffffffffffffffff1673ffffffffffffffffffffffffffffffffffffffff168152602001908152602001600020600081548092919060010191905055506001915050919050565b6000600260008373ffffffffffffffffffffffffffffffffffffffff1673ffffffffffffffffffffffffffffffffffffffff168152602001908152602001600020549050919050565b828054600181600116156101000203166002900490600052602060002090601f016020900481019282601f1061064e57805160ff191683800117855561067c565b8280016001018555821561067c579182015b8281111561067b578251825591602001919060010190610660565b5b509050610689919061068d565b5090565b6106af91905b808211156106ab576000816000905550600101610693565b5090565b905600a165627a7a72305820881c6c73a405ff4200b5ea5b79bea7cef3d172020e5e47ab89da2a69ced290ca0029",
  "source": "pragma solidity ^0.4.16;\n\nimport \"./ConvertLib.sol\";\n\n// This is just a simple example of a coin-like contract.\n// It is not standards compatible and cannot be expected to talk to other\n// coin/token contracts. If you want to create a standards-compliant\n// token, see: https://github.com/ConsenSys/Tokens. Cheers!\n\ncontract MetaCoin {\n//\tmapping (address => uint) balances;\n\t//  token adress\n//\tmapping (string => address) tokens;\n\n//\tevent Transfer(address indexed _from, address indexed _to, uint256 _value);\n\n\n  struct Token {\n    string value;\n    bool wasted;\n  }\n\n  //Token[] public tokens;\n\n  mapping (uint => Token) private tokens;\n  mapping (uint => address) private tokenToOwner;\n  mapping (address => uint) private ownerTokenCount;\n\n\n\n\n\tfunction addToken(string token) public returns(bool sufficient) {\n\t   // if (tokenToOwner[token] == address(0x0)) return false;\n\t   uint id = uint(keccak256(token));\n\t   tokens[id] = Token(token, false);\n        //uint id = tokens.push(Token(uint(keccak256(token)), false)) - 1;\n        tokenToOwner[uint(keccak256(token))] = msg.sender;//msg.sender;\n        ownerTokenCount[msg.sender]++;\n\t\treturn true;\n\t}\n\n\tfunction getBalance(address addr) public view returns(uint) {\n\t\treturn ownerTokenCount[addr];\n\t}\n\n\tfunction applyToken(address addr, string token) public returns(bool sufficient) {\n//\t    if (tokenToOwner[token] != address(this)) return false;\n\t   uint id = uint(keccak256(token));\n        if (tokens[id].wasted == false) {\n        address originalAddr = tokenToOwner[id];\n        tokenToOwner[id] = addr;\n        ownerTokenCount[originalAddr]--;\n        ownerTokenCount[addr]++;\n        tokens[id].wasted = true;\n\n\t\treturn true;\n      }\n\n\t\treturn false;\n\t}\n\n\n//\tfunction addToken(string token) public returns(bool sufficient) {\n//\t\tif (balances[msg.sender] < amount) return false;/\n//\t\tbalances[msg.sender] -= amount;\n//\t\tbalances[receiver] += amount;\n//\t\tTransfer(msg.sender, receiver, amount);\n//\t\treturn true;\n//\t}\n\n\n\n\n//\tfunction addToken(address receiver, uint amount) public returns(bool sufficient) {\n//\t\tif (balances[msg.sender] < amount) return false;\n//\t\tbalances[msg.sender] -= amount;\n//\t\tbalances[receiver] += amount;\n//\t\tTransfer(msg.sender, receiver, amount);\n//\t\treturn true;\n//\t}\n\n\n\n\n\n\n//\tfunction sendCoin(address receiver, uint amount) public returns(bool sufficient) {\n//\t\tif (balances[msg.sender] < amount) return false;\n//\t\tbalances[msg.sender] -= amount;\n//\t\tbalances[receiver] += amount;\n//\t\tTransfer(msg.sender, receiver, amount);\n//\t\treturn true;\n//\t}\n\n\t//should be ownable\n//\tfunction addToken(address receiver, string toke) public returns(bool sufficient) {\n//\t\ttokens[toke] = receiver;\n//\t\treturn true;\n//\t}\n\n//\tfunction tokenToCoin(address receiver, string token) public returns(bool sufficient) {\n\t\t//if (tokens[tok] != msg.sender) return false;\n\t\t//delete tokens[token];\n//\t\tbalances[receiver] += 11;\n\t//\tTransfer(tx.origin, msg.sender, 10);\n//\t\treturn true;\n//\t}\n\n//\tfunction getBalanceInEth(address addr) public view returns(uint){\n//\t\treturn ConvertLib.convert(getBalance(addr),2);\n//\t}\n\n//\tfunction getBalance(address addr) public view returns(uint) {\n//\t\treturn balances[addr];\n//\t}\n}\n",
  "sourcePath": "/Users/dmitrymorozov/Projects/EPAM/Hackaton2018/tmp/contracts/MetaCoin.sol",
  "compiler": {
    "name": "solc",
    "version": "0.4.23+commit.124ca40d.Emscripten.clang"
  },
  "schemaVersion": "2.0.0",
  "updatedAt": "2018-05-19T11:38:48.197Z"
}