{
  "contractName": "MetaCoin",
  "abi": [
    {
      "constant": false,
      "inputs": [
        {
          "name": "token",
          "type": "string"
        }
      ],
      "name": "addToken",
      "outputs": [
        {
          "name": "sufficient",
          "type": "bool"
        }
      ],
      "payable": false,
      "stateMutability": "nonpayable",
      "type": "function"
    },
    {
      "constant": true,
      "inputs": [
        {
          "name": "addr",
          "type": "address"
        }
      ],
      "name": "getBalance",
      "outputs": [
        {
          "name": "",
          "type": "uint256"
        }
      ],
      "payable": false,
      "stateMutability": "view",
      "type": "function"
    },
    {
      "constant": false,
      "inputs": [
        {
          "name": "token",
          "type": "string"
        }
      ],
      "name": "applyToken",
      "outputs": [
        {
          "name": "sufficient",
          "type": "bool"
        }
      ],
      "payable": false,
      "stateMutability": "nonpayable",
      "type": "function"
    },
    {
      "constant": false,
      "inputs": [],
      "name": "generateCreature",
      "outputs": [
        {
          "name": "sufficient",
          "type": "bool"
        }
      ],
      "payable": false,
      "stateMutability": "nonpayable",
      "type": "function"
    },
    {
      "constant": false,
      "inputs": [
        {
          "name": "token",
          "type": "string"
        }
      ],
      "name": "reGenerateCreature",
      "outputs": [
        {
          "name": "sufficient",
          "type": "bool"
        }
      ],
      "payable": false,
      "stateMutability": "nonpayable",
      "type": "function"
    },
    {
      "constant": false,
      "inputs": [
        {
          "name": "addr",
          "type": "address"
        }
      ],
      "name": "getCreature",
      "outputs": [
        {
          "name": "sufficient",
          "type": "uint256"
        }
      ],
      "payable": false,
      "stateMutability": "nonpayable",
      "type": "function"
    },
    {
      "constant": false,
      "inputs": [
        {
          "name": "x",
          "type": "address"
        }
      ],
      "name": "toString",
      "outputs": [
        {
          "name": "",
          "type": "string"
        }
      ],
      "payable": false,
      "stateMutability": "nonpayable",
      "type": "function"
    }
  ],
  "bytecode": "0x60806040526010600055600054600a0a60015534801561001e57600080fd5b50610c528061002e6000396000f300608060405260043610610083576000357c0100000000000000000000000000000000000000000000000000000000900463ffffffff1680632034977a146100885780634fb484341461010957806356ca623e146101605780638a94960c1461021c5780638ce261081461024b57806396d09787146102cc578063f8b2cb4f1461034d575b600080fd5b34801561009457600080fd5b506100ef600480360381019080803590602001908201803590602001908080601f01602080910402602001604051908101604052809392919081815260200183838082843782019150505050505091929192905050506103a4565b604051808215151515815260200191505060405180910390f35b34801561011557600080fd5b5061014a600480360381019080803573ffffffffffffffffffffffffffffffffffffffff169060200190929190505050610537565b6040518082815260200191505060405180910390f35b34801561016c57600080fd5b506101a1600480360381019080803573ffffffffffffffffffffffffffffffffffffffff169060200190929190505050610583565b6040518080602001828103825283818151815260200191508051906020019080838360005b838110156101e15780820151818401526020810190506101c6565b50505050905090810190601f16801561020e5780820380516001836020036101000a031916815260200191505b509250505060405180910390f35b34801561022857600080fd5b5061023161066f565b604051808215151515815260200191505060405180910390f35b34801561025757600080fd5b506102b2600480360381019080803590602001908201803590602001908080601f0160208091040260200160405190810160405280939291908181526020018383808284378201915050505050509192919290505050610738565b604051808215151515815260200191505060405180910390f35b3480156102d857600080fd5b50610333600480360381019080803590602001908201803590602001908080601f0160208091040260200160405190810160405280939291908181526020018383808284378201915050505050509192919290505050610936565b604051808215151515815260200191505060405180910390f35b34801561035957600080fd5b5061038e600480360381019080803573ffffffffffffffffffffffffffffffffffffffff169060200190929190505050610ab6565b6040518082815260200191505060405180910390f35b600080826040518082805190602001908083835b6020831015156103dd57805182526020820191506020810190506020830392506103b8565b6001836020036101000a0380198251168184511680821785525050505050509050019150506040518091039020600190049050600015156002600083815260200190815260200160002060010160009054906101000a900460ff161515141561052c5760206040519081016040528061045585610aff565b815250600560003373ffffffffffffffffffffffffffffffffffffffff1673ffffffffffffffffffffffffffffffffffffffff1681526020019081526020016000206000820151816000015590505060016002600083815260200190815260200160002060010160006101000a81548160ff021916908315150217905550600460003373ffffffffffffffffffffffffffffffffffffffff1673ffffffffffffffffffffffffffffffffffffffff168152602001908152602001600020600081548092919060019003919050555060019150610531565b600091505b50919050565b6000600560008373ffffffffffffffffffffffffffffffffffffffff1673ffffffffffffffffffffffffffffffffffffffff168152602001908152602001600020600001549050919050565b606080600060146040519080825280601f01601f1916602001820160405280156105bc5781602001602082028038833980820191505090505b509150600090505b6014811015610665578060130360080260020a8473ffffffffffffffffffffffffffffffffffffffff168115156105f757fe5b047f010000000000000000000000000000000000000000000000000000000000000002828281518110151561062857fe5b9060200101907effffffffffffffffffffffffffffffffffffffffffffffffffffffffffffff1916908160001a90535080806001019150506105c4565b8192505050919050565b600080600560003373ffffffffffffffffffffffffffffffffffffffff1673ffffffffffffffffffffffffffffffffffffffff168152602001908152602001600020600001541415610730576020604051908101604052806106d86106d333610583565b610aff565b815250600560003373ffffffffffffffffffffffffffffffffffffffff1673ffffffffffffffffffffffffffffffffffffffff1681526020019081526020016000206000820151816000015590505060019050610735565b600090505b90565b600080826040518082805190602001908083835b602083101515610771578051825260208201915060208101905060208303925061074c565b6001836020036101000a0380198251168184511680821785525050505050509050019150506040518091039020600190049050600115156002600083815260200190815260200160002060010160019054906101000a900460ff16151514156107dd5760009150610930565b6060604051908101604052808481526020016000151581526020016000151581525060026000838152602001908152602001600020600082015181600001908051906020019061082e929190610b81565b5060208201518160010160006101000a81548160ff02191690831515021790555060408201518160010160016101000a81548160ff021916908315150217905550905050600060036000856040518082805190602001908083835b6020831015156108ae5780518252602082019150602081019050602083039250610889565b6001836020036101000a038019825116818451168082178552505050505050905001915050604051809103902060019004815260200190815260200160002060006101000a81548173ffffffffffffffffffffffffffffffffffffffff021916908373ffffffffffffffffffffffffffffffffffffffff160217905550600191505b50919050565b600080826040518082805190602001908083835b60208310151561096f578051825260208201915060208101905060208303925061094a565b6001836020036101000a0380198251168184511680821785525050505050509050019150506040518091039020600190049050600015156002600083815260200190815260200160002060010160019054906101000a900460ff1615151415610aab57336003600083815260200190815260200160002060006101000a81548173ffffffffffffffffffffffffffffffffffffffff021916908373ffffffffffffffffffffffffffffffffffffffff160217905550600460003373ffffffffffffffffffffffffffffffffffffffff1673ffffffffffffffffffffffffffffffffffffffff1681526020019081526020016000206000815480929190600101919050555060016002600083815260200190815260200160002060010160016101000a81548160ff02191690831515021790555060019150610ab0565b600091505b50919050565b6000600460008373ffffffffffffffffffffffffffffffffffffffff1673ffffffffffffffffffffffffffffffffffffffff168152602001908152602001600020549050919050565b600080826040518082805190602001908083835b602083101515610b385780518252602082019150602081019050602083039250610b13565b6001836020036101000a038019825116818451168082178552505050505050905001915050604051809103902060019004905060015481811515610b7857fe5b06915050919050565b828054600181600116156101000203166002900490600052602060002090601f016020900481019282601f10610bc257805160ff1916838001178555610bf0565b82800160010185558215610bf0579182015b82811115610bef578251825591602001919060010190610bd4565b5b509050610bfd9190610c01565b5090565b610c2391905b80821115610c1f576000816000905550600101610c07565b5090565b905600a165627a7a723058205a299862844bccdfacd055629ba12841ff852d671708cb4dfec99288aa1526520029",
  "source": "pragma solidity ^0.4.16;\n\nimport \"./ConvertLib.sol\";\n\n// This is just a simple example of a coin-like contract.\n// It is not standards compatible and cannot be expected to talk to other\n// coin/token contracts. If you want to create a standards-compliant\n// token, see: https://github.com/ConsenSys/Tokens. Cheers!\n\ncontract MetaCoin {\n//\tmapping (address => uint) balances;\n\t//  token adress\n//\tmapping (string => address) tokens;\n\n//\tevent Transfer(address indexed _from, address indexed _to, uint256 _value);\n\n  uint dnaDigits = 16;\n  uint dnaModulus = 10 ** dnaDigits;\n\n  struct Token {\n    string value;\n    bool wasted;\n    bool activated;\n  }\n\n  struct Creature {\n    uint value;\n  }\n\n  //Token[] public tokens;\n\n  mapping (uint => Token) private tokens;\n  mapping (uint => address) private tokenToOwner;\n  mapping (address => uint) private ownerTokenCount;\n\n  mapping (address => Creature) private creatures;\n\n\tfunction addToken(string token) public returns(bool sufficient) {\n\t\tuint id = uint(keccak256(token));\n\t    if (tokens[id].activated == true) return false;\n\t    tokens[id] = Token(token, false, false);\n        tokenToOwner[uint(keccak256(token))] = address(0x0);//msg.sender;\n\t\treturn true;\n\t}\n\n\tfunction getBalance(address addr) public view returns(uint) {\n\t\treturn ownerTokenCount[addr];\n\t}\n\n\tfunction applyToken(string token) public returns(bool sufficient) {\n\n\t   uint id = uint(keccak256(token));\n        if (tokens[id].activated == false) {\n        tokenToOwner[id] = msg.sender;\n        ownerTokenCount[msg.sender]++;\n        tokens[id].activated = true;\n\n\t\treturn true;\n      }\n\n\t\treturn false;\n\t}\n\n\tfunction generateCreature() public returns(bool sufficient) {\n\t    if (creatures[msg.sender].value == 0) {\n\t       creatures[msg.sender] = Creature(_generateRandomDna(toString(msg.sender)));\n\t       return true;\n\t    }\n\n\t   return false;\n\t}\n\n\tfunction reGenerateCreature(string token) public returns(bool sufficient) {\n\t  uint id = uint(keccak256(token));\n\t  if (tokens[id].wasted == false) {\n\t    creatures[msg.sender] = Creature(_generateRandomDna(token));\n\t    tokens[id].wasted = true;\n        ownerTokenCount[msg.sender]--;\n\n\t\treturn true;\n      }\n\n\t  return false;\n\t}\n\n\tfunction getCreature(address addr) public returns(uint sufficient) {\n\t   return creatures[addr].value;\n\t}\n\n  function _generateRandomDna(string _str) private view returns (uint) {\n    uint rand = uint(keccak256(_str));\n    return rand % dnaModulus;\n  }\n\nfunction toString(address x) returns (string) {\n    bytes memory b = new bytes(20);\n    for (uint i = 0; i < 20; i++)\n        b[i] = byte(uint8(uint(x) / (2**(8*(19 - i)))));\n    return string(b);\n}\n\n//\tfunction addToken(string token) public returns(bool sufficient) {\n//\t\tif (balances[msg.sender] < amount) return false;/\n//\t\tbalances[msg.sender] -= amount;\n//\t\tbalances[receiver] += amount;\n//\t\tTransfer(msg.sender, receiver, amount);\n//\t\treturn true;\n//\t}\n\n\n\n\n//\tfunction addToken(address receiver, uint amount) public returns(bool sufficient) {\n//\t\tif (balances[msg.sender] < amount) return false;\n//\t\tbalances[msg.sender] -= amount;\n//\t\tbalances[receiver] += amount;\n//\t\tTransfer(msg.sender, receiver, amount);\n//\t\treturn true;\n//\t}\n\n\n\n\n\n\n//\tfunction sendCoin(address receiver, uint amount) public returns(bool sufficient) {\n//\t\tif (balances[msg.sender] < amount) return false;\n//\t\tbalances[msg.sender] -= amount;\n//\t\tbalances[receiver] += amount;\n//\t\tTransfer(msg.sender, receiver, amount);\n//\t\treturn true;\n//\t}\n\n\t//should be ownable\n//\tfunction addToken(address receiver, string toke) public returns(bool sufficient) {\n//\t\ttokens[toke] = receiver;\n//\t\treturn true;\n//\t}\n\n//\tfunction tokenToCoin(address receiver, string token) public returns(bool sufficient) {\n\t\t//if (tokens[tok] != msg.sender) return false;\n\t\t//delete tokens[token];\n//\t\tbalances[receiver] += 11;\n\t//\tTransfer(tx.origin, msg.sender, 10);\n//\t\treturn true;\n//\t}\n\n//\tfunction getBalanceInEth(address addr) public view returns(uint){\n//\t\treturn ConvertLib.convert(getBalance(addr),2);\n//\t}\n\n//\tfunction getBalance(address addr) public view returns(uint) {\n//\t\treturn balances[addr];\n//\t}\n}\n",
  "sourcePath": "/Users/dmitrymorozov/Projects/EPAM/Hackaton2018/tmp/contracts/MetaCoin.sol",
  "compiler": {
    "name": "solc",
    "version": "0.4.23+commit.124ca40d.Emscripten.clang"
  },
  "schemaVersion": "2.0.0",
  "updatedAt": "2018-05-19T13:31:49.266Z"
}